:100000000C949A080C94CB080C94CB080C94CB0855
:100010000C94CB080C94CB080C94CB080C94CB0814
:100020000C94CB080C94E11C0C94E11C0C94E11C86
:100030000C94CB080C94CB080C94CB080C94CB08F4
:100040000C94CB080C94CB080C94CB080C94CB08E4
:100050000C94CB080C94CB080C94CB080C94971CF4
:100060000C94CB080C949A1B0C94711B0C94CB0829
:100070000C94CB080C94CB080C94CB080C94CB08B4
:100080000C94CB080C94CB080C94CB080C94CB08A4
:100090000C94CB080C94CB080C94CB080C94CB0894
:1000A0000C94CB080C94CB080C94CB080C94CB0884
:1000B0000C94CB080C94CB080C94CB080C94CB0874
:1000C0000C94CB080C94CB080C94CB080C94CB0864
:1000D0000C94CB080C94CB080C94CB080C94CB0854
:1000E0000C94CB086E1A711A601A641A6A1AA81A4C
:1000F000751A791A7F1A831A871A8D1A911A951A06
:10010000A81A9B1A9F1AA31A000000000000000002
:100110000000000000000000FFFF0F00000400626C
:10012000080008080003000C01030B5A020306092B
:1001300003031710040300230503001706030963D4
:100140000703090C08030C100903322210001600E3
:100150001100010112000000130001000001300332
:10016000010137020301000D800200610201B0C1EC
:10017000FFFF320001000001020000010300301007
:10018000090001000C000000900000800F0000003A
:10019000100200001102EF001202000013028F0192
:1001A000000500000105000002055F0001040100D8
:1001B00004040000FFFF320007000001FFFF3200CF
:1001C000000200000102000000000000000000002A
:1001D0000000000000000100A4000100FFFF0A0071
:1001E00060000027080008083000140231001537AD
:1001F000320004063300160E3400112235000015BB
:100200003600078537000714380003143900200032
:10021000900015001000100411003702290046005C
:100220002A00460007000000120089011300001197
:10023000FFFF96001200B901010000010200000258
:1002400003003010090001000A0000000D0000004A
:100250000E003000500000005100EF00520000007E
:1002600053003F01610001006A00000080000000AF
:100270008100000082005F009200000193000107EE
:10028000FFFF5000070000010100FF322800C002FC
:100290001010C10141C50400228040360168B00140
:1002A00000B102B011B40102B60302023BB701C6AD
:1002B0003A0155F704A9512C821100FF962900013B
:1002C00000FF322800C002191AC1024500C20133E2
:1002D000C5020028B40102B60302023BE00F1F254D
:1002E000220B060A4EC639000000000000E10F1F75
:1002F0003F3F0F1F0F4649310509031C1A0020001C
:1003000036010A3A01551100FF3229000100FF7D34
:100310001100FF14B00100B30402000000B401009A
:10032000D003074218D103000710D2020102D30202
:100330000102D4020102C005103B000211C10310EA
:100340001088C50103C60102C80C003236450616E6
:10035000377577540C00CC01003A01551100FF7835
:100360002900FF190100FF322800F603010100CF28
:1003700003008130ED0464031281E803851078CB1B
:1003800005392C003402F70120EA020000B0010018
:10039000B102001BB40100C00121C10111C5023F1F
:1003A0003CC701B5360148F20100260101E00F0FFC
:1003B00026240B0E0954A8460C17090F0700E10F5D
:1003C00000191B0410072A473903060630380F119D
:1003D00000FF9629003A01550100FF322800F6037C
:1003E000090103B00140B40100C00123C10110C5DF
:1003F000022B2BC701C0360188B102001BB70107D1
:100400001100FF9629003A01550100FF3228001122
:1004100000FF9629003A0155010028001100FF64F1
:10042000B00100C10410100202C006003500000136
:1004300002C50104D2020104CA0100EA01803601AA
:10044000483A01552A04000000EF2B040000018FF8
:1004500030040000018F290002070830050736002C
:100460000B0713120100000102000001030030100D
:1004700008000202090000000C0000000F0000004C
:10048000000100000201000003010000FFFFC8009E
:100490000001901101012702FFFF32000201BD019E
:1004A000FFFF32000301002D81020E00FFFF32002A
:1004B0000002000001020000000300000103070722
:1004C00002030606050300000603000D07030607E6
:1004D00008030500090307000C0300000D030A00D0
:1004E000100200001102EF00120200001302AF011F
:1004F00000040031010401000404000000050000B4
:1005000001050000020500000305000004050000CD
:100510000505000010001000110000062000020078
:1005200007007301E500F0780100000102000002FD
:10053000030030100400000005000000080007025E
:10054000090000000A0000000C0000000D0000007F
:100550000F00000010000000110007001200000052
:100560001300000007000100FFFFC80010009016F4
:1005700011002702FFFF320012000D00FFFF3200C2
:100580001300001229000A002B000D00FFFF3200AB
:1005900020000000210000003000000031000404B1
:1005A0003200030035000504360008083700070450
:1005B00038000303390007073C0004053D00080824
:1005C000500000005100EF005200000053003F01B6
:1005D00060000027610001006A0000008000000048
:1005E0008100000082000000830000008400000001
:1005F0008500000090001000920000000700330109
:10060000E500008000000100010000010200000779
:10061000030030100400000008000202090000007E
:100620000A0000000C0000000D0000000F00000098
:10063000100000001100070012000000130000006D
:10064000FFFF32001000B01711000700FFFF0A0083
:1006500012003A01FFFF0A001300001A29000C00E3
:10066000FFFF0A00300000003100050532000400E1
:100670003500060036000707370005013800020084
:10068000390007073C0004073D0007085000000040
:100690005100EF005200000053003F01600000A72E
:1006A000610001006A00000021000000200000003D
:1006B0008000000081000000820000008300000034
:1006C00084000000850000009000100092000000EF
:1006D00093000300950010019700000098000000AF
:1006E00007007301FFFF32000100FF3228003A01CA
:1006F000551100FF322900460C9441003323454434
:100700007712CC468202020000040200EF060200CB
:10071000000802013F0101061601C823039595FF59
:100720002704020202022C0202023A040101F00034
:10073000FF50350238783E013840010F4101F01971
:10074000012D930106FF502001401D0307000444C2
:10075000023C12FF501C0104FF50430180FF501B5C
:100760000108FF501B0110FF5090017F260104FF7C
:100770005026012426012CFF5026013C570102552A
:100780000100570100EA020020EC020CC4E8013825
:10079000E90110F10101F20110400D010000100EFD
:1007A0002404500213191916500E1B312F3F3F3EDF
:1007B0002F7B0906060C1DCC1B011B1A010124010D
:1007C0002F25015723018818013419010101010067
:1007D0001F0188FF051F0180FF031F0190FF051FF8
:1007E00001D0FF05170105360100280138FF282830
:1007F000013F16011802020000040200EF06020089
:10080000000802013F01001100FF643601803A0137
:1008100055B2050C0C003333B70135BB012BC001B9
:1008200004C20201FFC30111C40120C6010FD0029E
:10083000A4A1E00ED000050E150D3743470915128F
:100840001619E10ED000050D0C062D44400E1C18A3
:1008500016192A04000000EF2B040000013F2900B4
:10086000FF0A00000100FFFF64000100000110000A
:100870009017600000A7610001004600020013000D
:1008800010801200FE8002000005030030103000CE
:100890000303310003033200030333000003340079
:1008A000030035000303360014003700030338004B
:1008B0000303390003033A0000033B0003003C003C
:1008C00003033D0000149200000293000303900014
:1008D0000D080100000102000007030030100400B1
:1008E000000008000203090000000A0000000C00DC
:1008F00000000D0000000F000000FFFF7800300036
:100900000303310003033200030333000003340008
:1009100003003500030336001400370003033800DA
:100920000303390003033A0000033B0003003C00CB
:1009300003033D000014600000A7610001006A008D
:1009400000009000330095001001FF000100FF003F
:100950000C00FF000000FFFF6400030030100700E0
:100960007301FFFF320000000100FFFF640001007F
:10097000000110009017600000A761000100460010
:100980000200130010801200FE8002000005030028
:10099000301030000303310003033200030333003F
:1009A0000003340003003500030336001400370051
:1009B000030338000303390003033A0000033B003C
:1009C00003003C0003033D0000149200000293006A
:1009D000030390000D08010000010200000703005E
:1009E00030100400000008000203090000000A00A3
:1009F00000000C0000000D0000000F000000FFFFD1
:100A00007800300003033100030332000303330096
:100A100000033400030035000303360014003700E0
:100A2000030338000303390003033A0000033B00CB
:100A300003003C0003033D000014600000A76100B8
:100A400001006A0000009000330095001001FF00D3
:100A50000100FF000C00FF000000FFFF6400030026
:100A6000300007007301FFFF32000100FFF0280093
:100A7000B00100C0010A1100FF9629003A0155019A
:100A800000FFF02800B001001100FF9629003A0194
:100A90005511001A001200213113006C0014004996
:100AA0004210000008FFFF0A0011001A01FFFF0AB0
:100AB0000011001A03FFFF0A0011001A07FFFF0AC6
:100AC0000011001A0FFFFF0A0011003A0FFFFF1E6E
:100AD000000100280102000001030030100700128D
:100AE00010080003030B0000110C0000000F0001B0
:100AF000181500200007001200FFFF280007001350
:100B000000070017003600EF003700000038003FF4
:100B1000013900000000002100240027002A002DD8
:100B2000003000330001010000040107010A010048
:100B3000000A0B02090C0D0E080703040100000057
:100B400000000000000000000000000000000000A5
:100B50000000000000000000000000121110000062
:100B60000000000000000000000000000000000085
:100B70000000000000000020002300260029002CB7
:100B8000002F0032000001000003010601090100EE
:100B9000002200250028002B002E00310034000226
:100BA000010000050108010B010505050507050801
:100BB000080808020202020A0A08080404040401E0
:100BC0000101010101010103030303030303030402
:100BD0000707070C0C0C0C0C0C0C0C020202020692
:100BE000060606060606060B0B0B0B0B0B0B0B0182
:100BF000021020200808102040102040800201022E
:100C000001080402010102040810204080804020F5
:100C10001008040201800402018040201008040230
:100C200001080402010102040810204080010204AE
:100C3000081020408000000000003E5B4F5B3E3EFD
:100C40006B4F6B3E1C3E7C3E1C183C7E3C181C5778
:100C50007D571C1C5E7F5E1C00183C1800FFE7C31C
:100C6000E7FF0018241800FFE7DBE7FF30483A06EB
:100C70000E2629792926407F050507407F05253F57
:100C80005A3CE73C5A7F3E1C1C08081C1C3E7F1443
:100C9000227F22145F5F005F5F06097F017F00668D
:100CA00089956A606060606094A2FFA29408047EE7
:100CB000040810207E201008082A1C08081C2A0896
:100CC000081E101010100C1E0C1E0C30383E383050
:100CD000060E3E0E06000000000000005F0000004F
:100CE00007000700147F147F14242A7F2A1223137D
:100CF00008646236495620500008070300001C2291
:100D000041000041221C002A1C7F1C2A08083E08C2
:100D100008008070300008080808080000606000C3
:100D200020100804023E5149453E00427F400072B7
:100D3000494949462141494D331814127F1027452E
:100D40004545393C4A49493141211109073649494C
:100D50004936464949291E0000140000004034006D
:100D60000000081422411414141414004122140821
:100D700002015909063E415D594E7C1211127C7FD9
:100D8000494949363E414141227F4141413E7F49E7
:100D90004949417F090909013E414151737F0808D2
:100DA000087F00417F41002040413F017F0814221D
:100DB000417F404040407F021C027F7F0408107F3B
:100DC0003E4141413E7F090909063E4151215E7F76
:100DD00009192946264949493203017F01033F4049
:100DE00040403F1F2040201F3F4038403F631408D1
:100DF000146303047804036159494D43007F414162
:100E0000410204081020004141417F040201020414
:100E10004040404040000307080020545478407F81
:100E2000284444383844444428384444287F3854BB
:100E300054541800087E090218A4A49C787F080462
:100E4000047800447D40002040403D007F1028444D
:100E50000000417F40007C047804787C080404781A
:100E60003844444438FC1824241818242418FC7CE2
:100E700008040408485454542404043F44243C40C7
:100E800040207C1C2040201C3C4030403C4428102A
:100E900028444C9090907C4464544C440008364163
:100EA0000000007700000041360800020102040241
:100EB0003C2623263C1EA1A161123A4040207A38EC
:100EC000545455592155557941225454784221554D
:100ED00054784020545579400C1E527212395555A1
:100EE0005559395454545939555454580000457C77
:100EF000410002457D420001457C407D1211127D7A
:100F0000F0282528F07C545545002054547C547C0E
:100F10000A097F4932494949323A4444443A324AFB
:100F20004848303A4141217A3A42402078009DA019
:100F3000A07D3D4242423D3D4040403D3C24FF2497
:100F400024487E4943662B2FFC2F2BFF0929F620CE
:100F5000C0887E090320545479410000447D41300B
:100F600048484A32384040227A007A0A0A727D0D97
:100F700019317D2629292F28262929292630484D4F
:100F80004020380808080808080808382F10C8AC9E
:100F9000BA2F102834FA00007B000008142A14220B
:100FA00022142A1408AA005500AAAA55AA55AA0074
:100FB0000000FF00101010FF00141414FF001010A8
:100FC000FF00FF1010F010F0141414FC001414F7BC
:100FD00000FF0000FF00FF1414F404FC14141710A9
:100FE0001F10101F101F1414141F00101010F000F9
:100FF0000000001F101010101F10101010F0100033
:101000000000FF101010101010101010FF10000042
:1010100000FF140000FF00FF00001F10170000FC7D
:1010200004F414141710171414F404F40000FF004F
:10103000F714141414141414F700F71414141714D8
:1010400010101F101F141414F4141010F010F000DE
:10105000001F101F0000001F14000000FC140000FF
:10106000F010F01010FF10FF141414FF14101010E3
:101070001F00000000F010FFFFFFFFFFF0F0F0F096
:10108000F0FFFFFF0000000000FFFF0F0F0F0F0F2A
:101090003844443844FC4A4A4A347E020206060276
:1010A0007E027E0263554941633844443C04407EDD
:1010B000201E2006027E020299A5E7A5991C2A4956
:1010C0002A1C4C7201724C304A4D4D3030487848E1
:1010D00030BC625A463D3E494949007E0101017ECD
:1010E0002A2A2A2A2A44445F444440514A44404020
:1010F000444A51400000FF0103E080FF000008085F
:101100006B6B083612362436060F090F06000018DE
:10111000180000001010003040FF0101001F010105
:101120001E00191D1712003C3C3C3C000000000052
:10113000BB28F62011241FBECFEFD1E2DEBFCDBF0A
:1011400000E00CBF17E1A0E0B2E0E6E0F6E500E069
:101150000BBF02C007900D92AC3CB107D9F729E153
:10116000ACECB7E101C01D92A03FB207E1F718E077
:10117000C9E9D8E000E006C021970109802FFE01EF
:101180000E94CC2AC839D10780E00807A9F70E943D
:1011900012210C94F22A0C940000EF92FF920F930C
:1011A0001F93DC01ED91FC910288F389E02D780119
:1011B00001E010E019951F910F91FF90EF900895B5
:1011C000EF92FF920F931F93DC01ED91FC91028847
:1011D000F389E02D7801890121E030E019951F9114
:1011E0000F91FF90EF90089508952F923F924F92A4
:1011F0005F926F927F928F929F92AF92BF92CF92A7
:10120000DF92EF92FF920F931F93CF93DF93CDB7AF
:10121000DEB769970FB6F894DEBF0FBECDBF9C83D3
:101220008B83DC0157969C91892F817090FF04C0BD
:10123000B1E0B90FBF8301C09F836A3059F4EB81DD
:10124000FC813489208D86859785329F800D911D84
:10125000112440C16D3009F441C1AB81BC811C96A1
:101260002D903C901D9781119F5FEB81FC81F98F40
:10127000E88F20853185221633060CF009C146849B
:10128000578422853385421653060CF001C1C48869
:10129000292F30E0398B288BAC2CB12CA1019C9DDF
:1012A000400D511D1124CA01181619060CF0F0C08A
:1012B000808DD201C89EA00DB11D11241A161B06E7
:1012C0000CF0E6C00288F389E02DFC83EB83A88D47
:1012D000B98D50960D90BC91A02DBE83AD8319821F
:1012E000BF86AE86E62FF0E0FF8BEE8BF9818F2F65
:1012F000FF0F990BA88DB98D58962C9126952695A0
:10130000269530E0821793070CF0C2C023E0880FC7
:10131000991F2A95E1F7F201E80FF91FFB87EA8789
:101320004E855F85489F9001499F300D589F300D35
:101330001124C901840D951D9B8B8A8B1A823896C6
:10134000FD8BEC8B9A81292F990F330BA889B989D2
:101350002A173B070CF098C0E88DF98D4789842F38
:1013600090E02817390771F1518DEE89FF89E51B4F
:10137000F109E89FB001E99F700DF89F700D1124ED
:10138000A88DB98D58968C91869FF001879FF00D9E
:101390001124F7FD379683E0F595E7958A95E1F7F7
:1013A00059815403C0011124E80FF91FE20FF31F04
:1013B000A88DB98D5A968D919C915B97E80FF91F76
:1013C000D49001C0D12C4C2D5A815403C00111245A
:1013D000D101A80FB91FB987A8876A887B888A843A
:1013E0009B84F101E20FF31FFD87EC87D0FE13C051
:1013F000A88DB98DED91FC91B1E0CB1206C00084AF
:10140000F185E02D2D813E8119C00288F389E02D00
:10141000ED80FE801FC0EB81FC812D813E81E217B3
:10142000F30701F1A88DB98DED91FC91B1E0CB12DC
:101430000CC00084F185E02D2B813C81A4016C85DA
:101440007D85888D998D19950DC00288F389E02DD1
:10145000EB80FC8085019501A30168857985888DE5
:10146000998D1995D694EFEF8E1A9E0A2E853F8599
:10147000620E731E4C895D894815590509F0B6CF77
:101480005A815F5F5A835ECF89818F5F89832ECFB8
:10149000A88DB98D54966C91BF816B9FC0011124AA
:1014A000E88DF98D24853585280F391F35872487E8
:1014B0004689442399F040855185DA01A81BB90B70
:1014C000A217B3075CF4208D86859785629F800DF7
:1014D000911D1124978786871586148681E090E0F8
:1014E00069960FB6F894DEBF0FBECDBFDF91CF91E6
:1014F0001F910F91FF90EF90DF90CF90BF90AF9032
:101500009F908F907F906F905F904F903F902F9023
:101510000895EF92FF920F931F93DC011A960D919D
:101520001C911B9718962D913C911997ED91FC9168
:101530000288F389E02D7B0140E050E060E070E03C
:1015400019951F910F91FF90EF9008956F927F92E0
:101550008F929F92AF92BF92CF92DF92EF92FF92C3
:101560000F931F93CF93DF936C015A014801EB0156
:101570003B01620E731EC615D70574F4D601ED91BA
:10158000FC910484F585E02D87019401A501BE013D
:10159000C60119952196EFCFDF91CF911F910F9141
:1015A000FF90EF90DF90CF90BF90AF909F908F9083
:1015B0007F906F900895EF92FF920F931F93260FE5
:1015C000371F21503109DC01ED91FC910284F38534
:1015D000E02D78018A0119951F910F91FF90EF90EE
:1015E0000895EF92FF920F931F93240F351F215000
:1015F0003109DC01ED91FC910284F385E02D780145
:1016000089019B0119951F910F91FF90EF9008950B
:101610006F927F928F929F92AF92BF92CF92DF9202
:10162000EF92FF920F931F93CF93DF93EC014B0147
:101630005A0169013801E881F9810684F785E02DB6
:1016400087011995A501460D571D41505109E881A3
:10165000F9810684F785E02D9601B401CE01199534
:10166000E881F9810484F585E02D9301A501B40199
:10167000CE011995C80CD91CB60161507109E881D9
:10168000F9810484F585E02D9301A501CE0119951A
:10169000DF91CF911F910F91FF90EF90DF90CF904E
:1016A000BF90AF909F908F907F906F9008952F92F2
:1016B0003F924F925F926F927F928F929F92AF92E2
:1016C000BF92CF92DF92EF92FF920F931F93CF932F
:1016D000DF9300D000D0CDB7DEB72C017E836D83C1
:1016E0006A015901C801FC82EB824801841A950AFB
:1016F00097FE03C091948194910835012D813E811C
:10170000621A730A77FE03C07194619471086814B9
:1017100079045CF43A2D2B2D5C01832F922F3D81AF
:101720002E81DE82CD82C32ED22EAD81BE81AA163D
:10173000BB065CF43C2D2D2D6C01832F922F3D8137
:101740002E81BE82AD82A32EB22E85012D813E81D7
:10175000021B130B1C012C183D0837FE03C03194EB
:1017600021943108780117FF03C03FEFE31AF30A11
:10177000F594E794C816D9062CF08FEF9FEF9A8363
:10178000898304C0A1E0B0E0BA83A9832D813E81A2
:10179000A216B30624F1D201ED91FC910084F185EB
:1017A000E02D2B813C816814790424F44D815E8105
:1017B000B60103C0A6016D817E81C2011995E218B0
:1017C000F308F7FE06C029813A81C20ED31EE00E4F
:1017D000F11E8D819E8101969E838D83D7CF2696A3
:1017E0000FB6F894DEBF0FBECDBFDF91CF911F9132
:1017F0000F91FF90EF90DF90CF90BF90AF909F90B0
:101800008F907F906F905F904F903F902F900895B2
:10181000089580E090E00895EF92FF920F931F9358
:10182000DC011A960D911C911B9718962D913C91F5
:101830001997ED91FC910288F389E02D7B0140E03E
:1018400050E060E070E019951F910F91FF90EF90CC
:1018500008950F931F93CF93DF93889A8898889861
:101860008898E0E0F1E060810CB1A2B38CB14081D6
:10187000889A889A88988898889820813CB192B3F1
:10188000DCB1C081889A607670E055E07595679507
:101890005A95E1F7007310E0159507951595079592
:1018A000602B712BA072B0E0B595A7956A2B7B2BAE
:1018B000E82FE870F0E0EE0FFF1FEE0FFF1F6E2B1A
:1018C0007F2B487188E0489FA0011124462B572B9D
:1018D000542F44272076622F629566956770232FD8
:1018E000207326952695822F862B9072292F30E023
:1018F00035952795282BD870DD0FDD0F2D2BC8715E
:1019000088E0C89FE00111242C2BCA01822BDF91B3
:10191000CF911F910F9108958B988A982091020181
:10192000277820930201A5982EB1277C2EB97091BB
:101930000201292F3327F901E370FF27A5E0EE0FFD
:10194000FF1FAA95E1F7E72BE09302017EB1F901B1
:10195000EC70FF27EE0FFF1FEE0FFF1FE72BEEB916
:1019600074B3F901E071FF27EE0FFF1FE72BE4BB13
:101970007EB1F901E072FF27F595E795F595E795BA
:10198000E72BEEB970910201207C3327E3E0359517
:101990002795EA95E1F7272B209302018998899AE8
:1019A00020910201277820930201A5982EB1277C6F
:1019B0002EB9709102019C0123703327F5E0220FAC
:1019C000331FFA95E1F7272B209302017EB19C018A
:1019D0002C703327220F331F220F331F272B2EB9D2
:1019E00074B39C0120713327220F331F272B24BB94
:1019F0007EB19C0120723327359527953595279523
:101A0000272B2EB9709102019C01207C3327F3E033
:101A100035952795FA95E1F7272B209302018998B0
:101A2000899AFA017FEF760F16160CF0C9C0219142
:101A30008A9A30910201377830930201A5983EB11D
:101A4000377C3EB960910201322F3370A0E23A9F99
:101A5000A0011124462B409302016EB1322F3C703D
:101A6000A4E03A9FA0011124462B4EB944B3322F73
:101A70003071330F342B34BB6EB1322F3072432FA1
:101A800050E05595479555954795462B4EB9309161
:101A90000201207C269526952695232B2093020172
:101AA0008998899A711102C0672FBCCF2091CC17F9
:101AB0002223D1F301968A9820910201277820935E
:101AC0000201A5982EB1277C2EB960910201292F21
:101AD0003327A90143705527A5E0440F551FAA9548
:101AE000E1F7462B409302016EB1A9014C705527D6
:101AF000440F551F440F551F462B4EB964B3A9011F
:101B000040715527440F551F462B44BB6EB1A901A8
:101B1000407255275595479555954795462B4EB993
:101B200040910201207C332753E0359527955A9543
:101B3000E1F7242B209302018998899A20910201D0
:101B4000277820930201A5982EB1277C2EB94091C9
:101B500002019C012370332765E0220F331F6A9531
:101B6000E1F7242B209302014EB19C012C70332706
:101B7000220F331F220F331F242B2EB944B39C0195
:101B800020713327220F331F242B24BB4EB19C011D
:101B9000207233273595279535952795242B2EB917
:101BA000409102019C01207C332763E03595279505
:101BB0006A95E1F7242B209302018998899A74CFC2
:101BC0008B9A08958B988A98E2E0F1E0808187787B
:101BD0008083A5988EB1877C8EB9A081872F9927A5
:101BE0009C0123703327B5E0220F331FBA95E1F72C
:101BF0002A2B2083AEB19C012C703327220F331F78
:101C0000220F331F2A2B2EB9A4B39C012071332736
:101C1000220F331F2A2B24BBAEB19C012072332725
:101C200035952795359527952A2B2EB92081807CCF
:101C3000992733E0959587953A95E1F7822B808334
:101C40008998899A808187788083A5988EB1877CCE
:101C50008EB92081CB0183709927A5E0880F991F49
:101C6000AA95E1F7822B80832EB1CB018C70992746
:101C7000880F991F880F991F822B8EB924B3CB012F
:101C800080719927880F991F822B84BB2EB1CB01BD
:101C9000807299279595879595958795822B8EB912
:101CA0008081607C7727B3E075956795BA95E1F7F9
:101CB000682B60838998899A8A9A80818778808343
:101CC000A5988EB1877C8EB96081852F99279C015C
:101CD0002370332775E0220F331F7A95E1F7262B07
:101CE00020836EB19C012C703327220F331F220FEB
:101CF000331F262B2EB964B39C0120713327220F8A
:101D0000331F262B24BB6EB19C01207233273595DF
:101D1000279535952795262B2EB92081807C9927EC
:101D2000A3E095958795AA95E1F7822B8083899802
:101D3000899A808187788083A5988EB1877C8EB9B7
:101D40002081CA0183709927B5E0880F991FBA9541
:101D5000E1F7822B80832EB1CA018C709927880FFE
:101D6000991F880F991F822B8EB924B3CA018071E5
:101D70009927880F991F822B84BB2EB1CA018072CC
:101D800099279595879595958795822B8EB9808112
:101D9000407C5527A3E055954795AA95E1F7482B38
:101DA00040838998899A8B9A08956FEF7FEF87E334
:101DB00090E00E94631D6FEF7FEF8DE790E00E943F
:101DC000631D6FEF7FEF8EEB90E00E94631D8091AB
:101DD0007F18882339F0813051F460E078EF8DE787
:101DE00090E009C060E078EF87E390E004C060E035
:101DF00078EF8EEB90E00C94631D8F929F92AF92E0
:101E0000BF92CF92DF92EF92FF920F931F93CF93E7
:101E1000DF93EE24EA94FE2C02E310E028E230E0A7
:101E20004AE951E06FE070E08AEB99E1C4D3809118
:101E30007A18811117C0E12CF12C0EE110E02AE094
:101E400030E044EA51E064E170E08AEB99E1B3D319
:101E50002AE030E044EA51E068E270E08AEB99E180
:101E6000AAD346C0C12CD12C7601C4EAD1E09FE0B0
:101E7000892E912CA12CB12CC701B601A50194018A
:101E80000E94502A8EE1C80ED11CE11CF11C2F5F6C
:101E90003F4F00E010E0AE0164E170E08AEB99E1B1
:101EA0007CD92196C33B81E0D80731F7C12CD12CD6
:101EB00076018FE0882E912CA12CB12CC701B601A0
:101EC000A50194010E94502A8EE1C81AD108E108A8
:101ED000F108215E3F4F00E010E0AE0164E170E0E8
:101EE0008AEB99E15AD92196C33C81E0D80731F7B2
:101EF000DF91CF911F910F91FF90EF90DF90CF90E6
:101F0000BF90AF909F908F900895EF92FF920F93A4
:101F10001F93CF93DF93CAEBD9E181E08C8BEE2442
:101F2000EA94FE2C02E310E025EF30E045E951E0B1
:101F300061E470E0CE013FD386E490E09D878C871A
:101F40008AE991E09F878E87E0917B18F0E0E0536B
:101F5000F84EE081F0E0EE0FFF1FEA5FFD4F808159
:101F60009181DF91CF911F910F91FF90EF900C9491
:101F70005F1DEF92FF920F931F9381E08093CE1924
:101F80001092CD191092CC191092CB191092CA1937
:101F9000EE24EA94FE2C0AE010E022E330E044EA6A
:101FA00050E068E070E08AEB99E105D380917C18FD
:101FB0008230D1F1A0F4882341F1813009F062C070
:101FC00087E190E09093C7198093C61985EA90E065
:101FD0009093C9198093C81981EA93E051C0843065
:101FE00009F440C080F1853009F04CC082E190E0F6
:101FF0009093C7198093C61985EA90E09093C91908
:102000008093C81987EB93E03BC080E190E0909308
:10201000C7198093C61985EA90E09093C9198093F7
:10202000C8198AE993E02CC082E190E09093C71927
:102030008093C61985EA90E09093C9198093C819D6
:1020400085EA93E01DC082E190E09093C7198093E8
:10205000C61985EA90E09093C9198093C8198AEA55
:1020600093E00EC08CE090E09093C7198093C6195E
:1020700085EA90E09093C9198093C8198FEA93E09C
:102080000E945F1D80917C18863088F497E09093C1
:1020900082191092831910928419809385190E94D5
:1020A000A11E1F910F91FF90EF900C94BA1E1F91EB
:1020B0000F91FF90EF90089581E08093CE198EE00C
:1020C00090E09093C7198093C61982E290E09093B4
:1020D000C9198093C81980917E18882359F080E02F
:1020E00098EF9093CD198093CC199093CB1980934E
:1020F000CA1908C01092CD191092CC191092CB19A0
:102100001092CA198CEB93E00C945F1D8F929F92F2
:10211000AF92BF92DF92EF92FF920F931F93CF93F4
:10212000DF9381E08093CE198EE090E09093C71901
:102130008093C61984E690E09093C9198093C819DA
:1021400080917D18882309F44CC080E098EF90932B
:10215000CD198093CC199093CB198093CA1981ED36
:10216000E82E87E1F82EE70100E010E098EA892EDA
:10217000912CA12CB12C0E94FC29D880A50194019E
:102180000E94502A6F5FC801860F911DFC01883A9A
:1021900091051CF4EF52F84E02C0E75DF84E8081C5
:1021A0008883D0820F5F1F4F2196093A110519F7D6
:1021B00020917B1880E090E0F70131917F0132138C
:1021C0000BC03091D1172093D117FC01EF52F84E7C
:1021D000308310927B1814C00196893A910561F7FB
:1021E0000FC01092CD191092CC191092CB191092E9
:1021F000CA19E1EDF7E181E081938F5F8A3AE1F757
:1022000083EC93E0DF91CF911F910F91FF90EF90BE
:10221000DF90BF90AF909F908F900C945F1D6F9256
:102220007F928F929F92AF92BF92CF92DF92EF9266
:10223000FF920F931F93CF93DF93662E81E08093DD
:10224000CE192FE0C22ED12CC0E0D0E03AE0732EA0
:10225000A12C48EFB42E56E4852E912C662079F0FF
:10226000EE24EA94FE2C0EE110E028EF30E0A60107
:102270004550510961E470E08AEB99E19CD12091CD
:102280008018822F672D0E94AD2A892F90E08C172D
:102290009D0749F4B092CD19A092CC19B092CB19F8
:1022A000A092CA1908C01092CD191092CC191092A0
:1022B000CB191092CA199092C7198092C619D09260
:1022C000C919C092C819C930D10521F480E6820F1E
:1022D0008A3090F0822F672D0E94AD2AFE019AE08D
:1022E000899FE00DF11D1124EE0FFF1FEA5FFD4FE6
:1022F000808191810E945F1D219688E2C80ED11CC9
:10230000CA30D10509F0AACFDF91CF911F910F916B
:10231000FF90EF90DF90CF90BF90AF909F908F9005
:102320007F906F900895CF92DF92EF92FF920F937C
:102330001F93CF93DF93CDB7DEB7A1970FB6F89475
:10234000DEBF0FBECDBF8BEC93E00E94241FE09157
:102350007B18F0E0EF52F84EE081F0E0EE0FFF1F47
:10236000EA5FFD4F808191810E94241FE0917B18DC
:10237000F0E0EF52F84E208130E040E050E019A24A
:102380008E010F5D1F4F9AE0C92ED12CE12CF12C4C
:10239000CA01B901A70196010E947C2A605DF8017B
:1023A00062938F01211531054105510589F7BF0160
:1023B00080EE98E10E94E12060ED73E080EE98E10C
:1023C0000E94E120E0917B18F0E0EF52F84E80810E
:1023D00093E090938219109283191092841980933C
:1023E00085190E94A11E0E94BA1E10927A1805DD5E
:1023F000A1960FB6F894DEBF0FBECDBFDF91CF918F
:102400001F910F91FF90EF90DF90CF900895CF93A1
:10241000DF931F92CDB7DEB7FC0134A925A9229521
:1024200021706227462F50E0578F468F30FF2CC017
:102430002091CC172223E1F0848D958D8734F3E829
:102440009F0719F08235924531F4611102C082E094
:1024500007C086E005C0611102C08AE001C088E0C3
:102460008983AE014F5F5F4F61E081E090E00AC079
:10247000611103C080E290E002C081E290E040E0A0
:1024800050E060E049DA27C0FC01248D358D233906
:10249000F7E73F07C9F040F42435E1E03E0761F07B
:1024A00020323445A9F410C0263263E9360761F0C2
:1024B0002930354B69F408C0440F551F440F551F90
:1024C000436167E070E006C0426061E074E002C012
:1024D00061E670E077DB0F90DF91CF910895CF92A6
:1024E000DF92EF92FF920F931F93CF93DF9300D071
:1024F0001F92CDB7DEB78C017A01690177FD4EC01E
:1025000057FD4CC0FC0180859185681779070CF058
:1025100045C082859385481759070CF03FC0F801E4
:10252000848D958D8732934961F4F80185898230D5
:1025300021F4F0E2EF0EF11C04C0833011F4605E70
:102540007F4FF80124A984A195A120FF17C07983AA
:102550006A837B836C83AE014F5F5F4F64E090E0E2
:10256000DBD9F80186A1F982EA82FB82EC82AE0116
:102570004F5F5F4F64E090E0CFD90AC0AB01BC0170
:10258000C80120DBF80166A177A1A701C8011ADB09
:10259000F80160A571A5A601C80114DB0F900F908A
:1025A0000F900F90DF91CF911F910F91FF90EF90BF
:1025B000DF90CF900895AF92BF92CF92DF92EF92CB
:1025C000FF920F931F93CF93DF936C0137FF05C0EA
:1025D000620F731F319521953109260F371F77FF41
:1025E00002C060E070E0D6011896ED91FC91199759
:1025F0002E173F070CF4F9015F01A61AB70A17FF5F
:1026000005C0400F511F119501951109CA01800F96
:10261000911F57FF02C040E050E0D6011A960D917D
:102620001C911B97801791070CF48C01E801C41BC7
:10263000D50B015011099F0121503109C6010E949B
:102640000B1E8B988A98F60180A591A52091020116
:10265000277820930201A5982EB1277C2EB960918E
:102660000201292F3327A9014370552705E0440FA4
:10267000551F0A95E1F7462B409302016EB1A9015F
:102680004C705527440F551F440F551F462B4EB90C
:1026900064B3A90140715527440F551F462B44BB15
:1026A0006EB1A901407255275595479555954795A7
:1026B000462B4EB940910201207C3327A3E035958B
:1026C0002795AA95E1F7242B209302018998899AEE
:1026D00020910201277820930201A5982EB1277C32
:1026E0002EB9409102019C0123703327B5E0220FDF
:1026F000331FBA95E1F7242B209302014EB19C01C0
:102700002C703327220F331F220F331F242B2EB997
:1027100044B39C0120713327220F331F242B24BB89
:102720004EB19C0120723327359527953595279515
:10273000242B2EB920910201807C992763E0959586
:1027400087956A95E1F7822B809302018998899A8F
:10275000AC16BD062CF49A2D8B2D5E01C92FD82FF7
:102760008A9A8F2D99279C01237033272295220F57
:10277000207EAC014C705527342F330F330FAC0142
:1027800040715527440FBC017695679576956795FE
:10279000562F587063E0969587956A95E1F7887192
:1027A000B70163707727962F9295990F907EB701A6
:1027B0006C707727660F660FF701E071FF277E2F99
:1027C000770FD701B695A795B695A795A870F7018D
:1027D000B3E0F695E795BA95E1F71E2F18711C1630
:1027E0001D060CF041C0F501B0910201B778B0931D
:1027F0000201A598BEB1B77CBEB9B0910201B22B5F
:10280000B0930201BEB1B32BBEB9B4B3B42BB4BB09
:10281000BEB1B52BBEB9B0910201B82BB093020185
:102820008998899AB0910201B778B0930201A5986E
:10283000BEB1B77CBEB9B0910201B92BB093020111
:10284000BEB1B62BBEB9B4B3B72BB4BBBEB1BA2BB5
:10285000BEB9B0910201B12BB09302018998899A57
:10286000319711F62197BBCF8B9AD601D4968C91D4
:10287000D49780FD13C01A960D911C911B9701509F
:10288000110918962D913C9119972150310940E07A
:1028900050E060E070E0C6010E940B1EDF91CF9116
:1028A0001F910F91FF90EF90DF90CF90BF90AF906E
:1028B0000895EF92FF920F931F93CF93DF93CDB7BD
:1028C000DEB72A970FB6F894DEBF0FBECDBF7C01EE
:1028D000862F8370F701858B962F917060FF03C060
:1028E0002681378103C0F70124813581F7013187C3
:1028F0002087992319F02481358103C0F7012681AF
:102900003781F70133872287823041F0833041F0ED
:10291000813011F088E405C088E203C088E901C075
:1029200088EF8A87F70124A935A930FF03C08A857B
:1029300080588A8731FF04C09A8580E489278A8776
:1029400033FF04C09A8588E089278A87F701848D40
:10295000958D20FFA9C08431F8E69F07F9F49A8588
:10296000892F881F8827881F8295880F880F807C71
:1029700096FD02C020E001C020E298729A871F8273
:102980008260822B88878BE38987AE01495F5F4F26
:1029900063E086EB90E00E948C0C5CC0833629E1FA
:1029A000920761F0813834E9930741F0813145E1C4
:1029B000940721F08138E5E19E0721F52A8527FF5C
:1029C00002C021602A872A8526FF02C022602A874A
:1029D0008336F9E19F0719F48A858F7311C0813816
:1029E00024E9920721F0813835E1930719F42A850B
:1029F0002F722A878131954169F58A858F7E806C97
:102A00008A8728C02091CC17222321F142E050E090
:102A1000F70155A344A326E030E037A326A362E2E2
:102A200070E071A760A753A742A744E050E055A704
:102A300044A737A726A728E030E031AB20AB82358A
:102A40009245E9F48A8584FD02C0826001C08660F7
:102A50008A8715C02AE230E0F70135A324A38BE270
:102A600090E097A386A34CE250E051A740A733A77C
:102A700022A735A724A797A786A791AB80AB809103
:102A8000CC17811103C086E390E002C086E190E09C
:102A9000AE01465F5F4F61E00E948C0C8A8590E03A
:102AA000F70191A380A3CDC02A858339F7E79F075B
:102AB00009F448C050F4843541E0940781F0803235
:102AC000E4E59E0709F073C03DC08632F3E99F0735
:102AD000C9F1893035EB930709F069C033C087E34A
:102AE00090E0F70193A782A786E390E095A784A7DB
:102AF00089E390E097A786A788E390E091AB80AB4D
:102B000080E290E095A384A381E290E097A386A35E
:102B100082E290E091A780A7822F022E000C990BF1
:102B20008827990F881F9927982F8827990F26FDA6
:102B300003C040E050E002C040E051E08862482B12
:102B4000592B67C040E052E0F70155A344A341E090
:102B500052E057A346A342E052E051A740A740E10C
:102B600052E053A742A741E152E055A744A742E1F2
:102B700052E057A746A743E152E051AB40AB27FDD7
:102B800003C020E030E002C020E030E88632F3E904
:102B90009F0731F08032944519F040E05AE602C0B8
:102BA00040E055E3422B532B60E074E027C080E205
:102BB00090E0F70195A384A381E290E097A386A318
:102BC00082E290E091A780A780E590E093A782A79A
:102BD00081E590E095A784A782E590E097A786A776
:102BE00083E590E091AB80AB27FD03C040E050E06F
:102BF00002C040E050E8576260E670E0C7010E9402
:102C0000E20D8A8586FD03C040E050E002C040E04E
:102C100051E061E070E0C7010E94E20D8A8585FD08
:102C200003C040E050E002C048E050E083FD506146
:102C30004063F70151A340A363E070E0C7010E9425
:102C4000E20DF701858980FF1CC084A995A992FD3A
:102C500018C084A195A126A137A135A324A397A3C9
:102C600086A382A593A526A537A533A722A797A754
:102C700086A784A595A520A931A935A724A791AB3E
:102C800080ABF7010285138501501109208531853C
:102C90002150310940E050E060E070E0C701BBD74F
:102CA000F70146815781848D958D8732F3E99F071F
:102CB00041F4F70125892250223018F400E210E097
:102CC00002C000E010E08732F3E99F0729F02227D5
:102CD0003327201B310B04C020E230E0201B310BD6
:102CE000F70164A960FF48C01982102F0A835B8333
:102CF0004C833D832E838091CC17811103C083E3E5
:102D000090E002C08EE090E0AE014F5F5F4F66E062
:102D10000E948C0C19821A838091CC17811103C0F8
:102D200087E390E002C084E190E0AE014F5F5F4F27
:102D300062E00E948C0C8091CC17882389F0198264
:102D4000F701848D958D8734934819F081E090E0E8
:102D500002C088E190E0AE014F5F5F4F61E009C0C3
:102D6000F70184A980FF57C040E050E060E083E1B4
:102D700090E00E948C0C4FC08339F7E79F0779F1F0
:102D8000F8F4803234E5930751F18338E7E79E0782
:102D900011F18435914081F5400F511F4150510987
:102DA00061E370E0C7010E94E20DA80162E370E0F8
:102DB000C7010E94E20D40E050E063E370E028C0EC
:102DC000863223E9920759F0893035EB930739F0C1
:102DD0008033924889F4F701468D578D11C0F70171
:102DE000468D578D426061E074E0C7010E94E20D9C
:102DF000A80164E074E00CC0F701468D578D426075
:102E000061E670E0C7010E94E20DA8016AE670E089
:102E1000C7010E94E20D2A960FB6F894DEBF0FBEDE
:102E2000CDBFDF91CF911F910F91FF90EF9008954B
:102E30000F931F93CF93DF93EC018B0110161106B4
:102E40000CF01BC1FE01859194912496FE013297EE
:102E5000659174918F3F2FEF920721F480E090E00D
:102E600022D508C18B988A98209102012778209357
:102E70000201A5982EB1277C2EB9E0910201292FDD
:102E80003327A90143705527F5E0440F551FFA95E4
:102E9000E1F74E2B40930201EEB1A9014C7055278A
:102EA000440F551F440F551F4E2B4EB9E4B3A901D3
:102EB00040715527440F551F4E2B44BBEEB1A9015D
:102EC0004072552755954795559547954E2B4EB9C8
:102ED00040910201207C3327A3E035952795AA95E0
:102EE000E1F7242B209302018998899A209102010D
:102EF000277820930201A5982EB1277C2EB9409106
:102F000002019C0123703327B5E0220F331FBA95CD
:102F1000E1F7242B209302014EB19C012C70332742
:102F2000220F331F220F331F242B2EB944B39C01D1
:102F300020713327220F331F242B24BB4EB19C0159
:102F4000207233273595279535952795242B2EB953
:102F500020910201807C9927A3E095958795AA95F9
:102F6000E1F7822B809302018998899A8A9A80914D
:102F70000201877880930201A5988EB1877C8EB973
:102F800040910201872F99279C012370332755E038
:102F9000220F331F5A95E1F7242B209302014EB1E3
:102FA0009C012C703327220F331F220F331F242B39
:102FB0002EB944B39C0120713327220F331F242BD9
:102FC00024BB4EB19C01207233273595279535954A
:102FD0002795242B2EB920910201807C9927B3E0FC
:102FE00095958795BA95E1F7822B80930201899890
:102FF000899A80910201877880930201A5988EB109
:10300000877C8EB920910201CB018370992735E02E
:10301000880F991F3A95E1F7822B809302012EB118
:10302000CB018C709927880F991F880F991F822BCD
:103030008EB924B3CB0180719927880F991F822BF9
:1030400084BB2EB1CB018072992795958795959574
:103050008795822B8EB980910201607C7727F3E0FF
:1030600075956795FA95E1F7682B60930201899849
:10307000899A8B9A04501109E1CEDF91CF911F916B
:103080000F910895DF92EF92FF920F931F93CF93CA
:10309000DF93CDB7DEB760970FB6F894DEBF0FBEF3
:1030A000CDBF7C018B01101611064CF5F701849100
:1030B0003196D490F2E0EF0EF11C8F3F39F46D2D74
:1030C00070E080E090E0EFD3D12C13C02E2DDE0114
:1030D0001196F701AD019E2F921B9D1520F494913E
:1030E0009D933196F8CFED0CF11C6D2D90E00E9470
:1030F0008C0CED2DF0E032960E1B1F0BD4CF60969A
:103100000FB6F894DEBF0FBECDBFDF91CF911F91F8
:103110000F91FF90EF90DF900895FF920F931F9310
:10312000CF93DF938B988A98E2E0F1E020812778B3
:103130002083A5982EB1277C2EB96081292F3327B3
:10314000A9014370552775E0440F551F7A95E1F7A3
:10315000462B40836EB1A9014C705527440F551F73
:10316000440F551F462B4EB964B3A9014071552732
:10317000440F551F462B44BB6EB1A9014072552721
:103180005595479555954795462B4EB94081207CDE
:103190003327D3E035952795DA95E1F7242B208363
:1031A0008998899A208127782083A5982EB1277C39
:1031B0002EB940819C012370332715E0220F331F65
:1031C0001A95E1F7242B20834EB19C012C703327F4
:1031D000220F331F220F331F242B2EB944B39C011F
:1031E00020713327220F331F242B24BB4EB19C01A7
:1031F000207233273595279535952795242B2EB9A1
:103200002081807C992773E0959587957A95E1F7E1
:10321000822B80838998899AC1E0D1E08881877860
:1032200088839D988DB1877C8DB98A9A0E94290CDC
:103230008C010E94290CF82E0E94290C889A8B9AE6
:103240008881886788839D9A8DB188638DB920E0D5
:1032500030E0302F22271127002740E050E05F2D7B
:1032600060E070E0042B152B262B372B492F50E004
:1032700060E070E0CB01BA01602B712B822B932BA5
:10328000DF91CF911F910F91FF900895FC01538D15
:10329000448D252F30E0842F90E0821B930B541730
:1032A00010F0CF96089501970895FC01918D828DBD
:1032B000981761F0828DDF01A80FB11D5D968C918A
:1032C000928D9F5F9F73928F90E008958FEF9FEF95
:1032D0000895FC01918D828D981731F0828DE80F51
:1032E000F11D858D90E008958FEF9FEF0895FC010B
:1032F000918D228D892F90E0805C9F4F821B9109D8
:103300008F739927089580EE98E1F1DF21E0892BF2
:1033100009F420E0822F0895FC01848DDF01A80FBD
:10332000B11DA35ABF4F2C91848D90E001968F73ED
:103330009927848FA689B7892C93A089B1898C910C
:10334000837080648C93938D848D981306C002885B
:10335000F389E02D80818F7D80830895EF92FF9225
:103360000F931F93CF93DF93EC0181E0888F9B8DA8
:103370008C8D981305C0E889F989808185FD25C069
:10338000F62E0B8D10E00F5F1F4F0F731127E02EED
:103390008C8DE8120BC00FB607FCFACFE889F989CB
:1033A000808185FFF5CFCE01B7DFF2CF8B8DFE0197
:1033B000E80FF11DE35AFF4FF0829FB7F8940B8F8F
:1033C000EA89FB89808180620AC09FB7F894EE8900
:1033D000FF896083E889F9898081837080648083B4
:1033E0009FBF81E090E0DF91CF911F910F91FF90FF
:1033F000EF900895CF93DF93EC01888D8823C1F07F
:10340000EA89FB89808185FD05C0A889B9898C91ED
:1034100086FD0EC00FB607FCF5CF808185FFF2CF89
:10342000A889B9898C9185FFEDCFCE0175DFE8CFF2
:10343000DF91CF91089580E090E0892B19F063DF50
:10344000811125C080E090E0892B41F080E090E080
:10345000892B21F00E94000081111CC080E090E0C7
:10346000892B41F080E090E0892B21F00E94000040
:10347000811113C080E090E0892BA1F080E090E002
:10348000892B81F00E94000081110AC008950E94DA
:103490000000D8CF0E940000E1CF0E940000EACFD8
:1034A0000C940000089590E0FC013197E231F105A1
:1034B00008F04EC08827EE58FF4F8F4F0C94CC2A4F
:1034C000809180008F7703C0809180008F7D8093F2
:1034D0008000089580918000877FF9CF84B58F7731
:1034E00002C084B58F7D84BD08958091B0008F7730
:1034F00003C08091B0008F7D8093B00008958091CB
:1035000090008F7707C0809190008F7D03C08091DD
:103510009000877F8093900008958091A0008F771E
:1035200007C08091A0008F7D03C08091A000877F9D
:103530008093A0000895809120018F7707C080912B
:1035400020018F7D03C080912001877F809320011F
:1035500008953FB7F8948091DB189091DC18A09102
:10356000DD18B091DE1826B5A89B05C02F3F19F0D5
:103570000196A11DB11D3FBFBA2FA92F982F8827F3
:10358000820F911DA11DB11DBC01CD0142E0660F4E
:10359000771F881F991F4A95D1F708952091CF175B
:1035A0003091D0172817390771F49091CD17809179
:1035B000CE17981741F0E091CD17F0E0EA56F74E9C
:1035C000808190E008958FEF9FEF089508951F93F5
:1035D000CF93DF93DC015C968D919C915D97009772
:1035E00039F421E030E013963C932E9312973BC0C0
:1035F0005196ED91FC91529750962C915097322F05
:1036000030951FB75E964C915E97742F727041FD96
:103610006095F8944081772311F0422B01C0432339
:103620004083EC012197F1F748E0508160FF02C030
:10363000522B01C053235083EC012197F1F766957B
:10364000415099F78081772319F08323808302C04A
:10365000282B20831FBF5C968D919C915D970197CD
:10366000F1F781E090E0DF91CF911F9108952091D3
:10367000CF173091D0172817390769F48091CE17EA
:103680002091CD1790E0805C9F4F821B910960E4F0
:1036900070E00C94B92A80E090E008952091CF1753
:1036A0003091D01728173907B9F49091CD17809130
:1036B000CE17981789F0E091CD17F0E0EA56F74E53
:1036C00080812091CD1730E02F5F3F4F2F7333273C
:1036D0002093CD1790E008958FEF9FEF08950E94FB
:1036E000EE2A1F920F920FB60F9211240BB60F9273
:1036F0002F933F934F935F936F937F938F939F93FA
:10370000AF93BF93EF93FF9380EE98E105DEFF91B7
:10371000EF91BF91AF919F918F917F916F915F9149
:103720004F913F912F910F900BBE0F900FBE0F90B6
:103730001F9018951F920F920FB60F9211240BB67F
:103740000F922F938F939F93EF93FF93E091F01835
:10375000F091F1188081E091F618F091F71882FD50
:1037600012C090818091F9188F5F8F732091FA18A1
:10377000821751F0E091F918F0E0E052F74E958F82
:103780008093F91801C08081FF91EF919F918F91F3
:103790002F910F900BBE0F900FBE0F901F9018959A
:1037A000CF93DF93282F30E0F901E15DF44F84914E
:1037B000F901E151F44FD491F901E755F44FC49167
:1037C000CC2389F081116FDEEC2FF0E0EE0FFF1FAC
:1037D000EB58F44FA591B491EC91ED2381E090E08A
:1037E00021F480E002C080E090E0DF91CF91089565
:1037F000CF93DF9390E0FC01E151F44F2491FC0161
:10380000E755F44F8491882361F190E0880F991F68
:10381000FC01EB5EF44FC591D491FC01E157F44FEC
:10382000A591B491611109C09FB7F8948881209542
:1038300082238883EC912E230BC0623061F49FB702
:10384000F8948881322F309583238883EC912E2B36
:103850002C939FBF06C08FB7F894E8812E2B288346
:103860008FBFDF91CF910895863308F086539091F2
:103870007B00282F2870977F922B90937B00877076
:10388000806480937C0080917A00806480937A00C9
:1038900080917A0086FDFCCF80917800209179009C
:1038A00090E0922B08958F929F92AF92BF92CF9209
:1038B000DF92EF92FF926B017C014BDE4B015C01CA
:1038C000C114D104E104F104E9F043DEDC01CB01D1
:1038D00088199909AA09BB09883E9340A105B10539
:1038E00078F321E0C21AD108E108F10888EE880EC9
:1038F00083E0981EA11CB11CC114D104E104F104A1
:1039000021F7DECFFF90EF90DF90CF90BF90AF9088
:103910009F908F9008952FB7F8946091D718709169
:10392000D8188091D9189091DA182FBF08951F9256
:103930000F920FB60F9211242F933F938F939F9363
:10394000AF93BF938091D7189091D818A091D918B0
:10395000B091DA183091D61823E0230F2D3720F4D8
:103960000196A11DB11D05C026E8230F0296A11DD9
:10397000B11D2093D6188093D7189093D818A09390
:10398000D918B093DA188091DB189091DC18A091C7
:10399000DD18B091DE180196A11DB11D8093DB18D2
:1039A0009093DC18A093DD18B093DE18BF91AF910F
:1039B0009F918F913F912F910F900FBE0F901F906D
:1039C00018951F920F920FB60F9211240BB60F92FB
:1039D0002F933F934F935F936F937F938F939F9317
:1039E000AF93BF93EF93FF93E091CF17F091D01770
:1039F000309709F451C0968DA685B785858591FFCE
:103A000004C09C91892329F447C09C91892309F023
:103A100043C0A389B4899C918589809589238C931F
:103A2000868997890197F1F7608D718DA685B78595
:103A3000558538E020E0CB010197F1F7822F90E027
:103A400095958795282F4C91452309F02068315092
:103A500091F7868D81FD20958091CE1790E001969B
:103A60008F7399273091CD17381749F0A091CE1751
:103A7000B0E0AA56B74E2C938093CE1703C0868D24
:103A80008160868F828D938D0197F1F7A389B48928
:103A90009C918589892B8C93FF91EF91BF91AF9178
:103AA0009F918F917F916F915F914F913F912F9156
:103AB0000F900BBE0F900FBE0F901F901895BC017A
:103AC0008AEB99E17EC32F923F924F925F926F9261
:103AD0007F928F929F92AF92BF92CF92DF92EF929E
:103AE000FF920F931F93CF93DF9300D000D0CDB7F9
:103AF000DEB73C015B01AC01435051098B0127E06B
:103B000030E06EE170E08AEB99E10E94E008E12C80
:103B1000F12CCC24C394D12C43E050E05E834D8340
:103B20002AEF222E33243A943EEF832E99249A943E
:103B30004FEFE41AF40A52E0C50ED11C8C0C9D1C08
:103B40004D805E80440C551C8FEF481A580AB7010F
:103B5000625E7F4F85019201A3018D819E81481B8A
:103B6000590B5A8349838AEB99E10E94E008A3012B
:103B70004E195F095C834B8396016D817E81625E85
:103B80007F4F8AEB99E10E94E0086EE170E06E19C8
:103B90007F09920149815A818AEB99E10E94E008EC
:103BA00096014B815C816EE170E08D819E81681B86
:103BB000790B8AEB99E10E94E0084D815E81E41661
:103BC000F50684F45FEF8516950609F4B1CF8D8173
:103BD0009E8101979E838D8392E0290E311C820C79
:103BE000931CA6CF26960FB6F894DEBF0FBECDBFAE
:103BF000DF91CF911F910F91FF90EF90DF90CF90C9
:103C0000BF90AF909F908F907F906F905F904F90FC
:103C10003F902F9008958F929F92AF92BF92CF9234
:103C2000DF92EF92FF920F931F93CF93DF9300D019
:103C30001F92CDB7DEB77C014B015A016901FC012F
:103C4000848D958D8732934991F4F701858982306F
:103C500031F4F0E2AF0EB11C005E1F4F08C083309C
:103C600031F420E2820E911C80E2C80ED11CF701D3
:103C700094A984A175A190FF19C099828A82DB82E0
:103C8000CC82AE014F5F5F4F64E090E00E948C0CED
:103C9000F70186A1B982AA821B830C83AE014F5F14
:103CA0005F4F64E090E00E948C0C3AC0A401682F42
:103CB000C7010E94E20DF70166A177A1A501C70126
:103CC0000E94E20DF70184A985FF0EC0858980FF5F
:103CD00006C0102F0027A02AB12A850105C0DC2CC0
:103CE000CC248C289D286401F70162A573A5A4014A
:103CF000C7010E94E20DF70166A577A5A501C701DE
:103D00000E94E20DF70164A575A5A601C7010E94F6
:103D1000E20DF70160A971A9A801C7010E94E20D97
:103D20000F900F900F900F90DF91CF911F910F91F7
:103D3000FF90EF90DF90CF90BF90AF909F908F90CB
:103D40000895EDE7F9E12381848190E0820F911DD0
:103D50002581820F911D2681820F911D2781820F5F
:103D6000911D2085820F911D9195819591099187D3
:103D700082870895CF93DF93CDE7D9E18881998138
:103D8000DC01ED91FC910190F081E02D6A811995A3
:103D900088819981DC01ED91FC910190F081E02D09
:103DA0006B81199588819981DC01ED91FC910190DD
:103DB000F081E02D6C81199588819981DC01ED916C
:103DC000FC910190F081E02D6D8119958881998198
:103DD000DC01ED91FC910190F081E02D6E8119954F
:103DE00088819981DC01ED91FC910190F081E02DB9
:103DF0006F81199588819981DC01ED91FC91019089
:103E0000F081E02D6885199588819981DC01ED911B
:103E1000FC910190F081E02D698519958881998147
:103E2000DC01ED91FC910190F081E02D6A851995FE
:103E300088819981DC01ED91FC910190F081E02D68
:103E40006B85DF91CF911994CF93DF93BC0180EE06
:103E500098E1B7D1EC0160ED73E080EE98E1B1D16B
:103E60008C0F9D1FDF91CF9108950F931F93CF93D8
:103E7000DF938B988A98E2E0F1E020812778208315
:103E8000A5982EB1277C2EB96081292F3327A9014F
:103E90004370552775E0440F551F7A95E1F7462B7F
:103EA00040836EB1A9014C705527440F551F440F34
:103EB000551F462B4EB964B3A90140715527440FD5
:103EC000551F462B44BB6EB1A9014072552755952D
:103ED000479555954795462B4EB94081207C332711
:103EE000D3E035952795DA95E1F7242B208389983F
:103EF000899A208127782083A5982EB1277C2EB916
:103F000040819C012370332715E0220F331F1A953F
:103F1000E1F7242B20834EB19C012C703327220F14
:103F2000331F220F331F242B2EB944B39C01207161
:103F30003327220F331F242B24BB4EB19C01207248
:103F400033273595279535952795242B2EB9208134
:103F5000807C992773E0959587957A95E1F7822B78
:103F600080838998899A01E011E0F801808187783F
:103F700080839D988DB1877C8DB98A9A0E94290C87
:103F8000EC010E94290CAC01889A8B9AF80180817F
:103F9000886780839D9A8DB188638DB9CE01A0E03A
:103FA000B0E0DC019927882760E070E08C019D017A
:103FB000042B152B262B372BC901B801DF91CF918C
:103FC0001F910F91089581E08093DF18E1E0F1E007
:103FD0008081886780839D9A8DB188638DB9809A2E
:103FE000819A829A839A849A8B9A889A899A8C9ACF
:103FF00062E370E080E090E056DC8C9864E670E06C
:1040000080E090E050DC8C9A64E670E080E090E024
:104010004ADC40E050E060EB70E08AEB99E10C9400
:10402000E20DCF92DF92EF92FF920F931F93CF9307
:10403000DF936C017A018B01C0E0D0E0CE15DF0583
:1040400081F0D8016D918D01D601ED91FC91019027
:10405000F081E02DC6011995892B11F02196EECF44
:104060007E01C701DF91CF911F910F91FF90EF90DB
:10407000DF90CF900895CF93DF93EC018091DF180C
:10408000811101C0A0DF8B988A9880910201877806
:1040900080930201A5988EB1877C8EB94091020170
:1040A0008D2F99279C012370332755E0220F331F52
:1040B0005A95E1F7242B209302014EB19C012C70FC
:1040C0003327220F331F220F331F242B2EB944B363
:1040D0009C0120713327220F331F242B24BB4EB1A8
:1040E0009C01207233273595279535952795242BEC
:1040F0002EB920910201807C9927F3E09595879550
:10410000FA95E1F7822B809302018998899A809130
:104110000201877880930201A5988EB1877C8EB9C1
:1041200020910201CE0183709927A5E0880F991F85
:10413000AA95E1F7822B809302012EB1CE018C70FB
:104140009927880F991F880F991F822B8EB924B346
:10415000CE0180719927880F991F822B84BB2EB1C5
:10416000CE01807299279595879595958795822B95
:104170008EB980910201C07CDD2753E0D595C795AB
:104180005A95E1F7C82BC09302018998899A8091CA
:1041900001018778809301019D988DB1877C8DB94D
:1041A0008A9A0E94290C889A8B9A2091010128678B
:1041B000209301019D9A2DB128632DB9DF91CF91F4
:1041C00008956115710579F0FB0101900020E9F770
:1041D0003197AF01461B570BDC01ED91FC9102803A
:1041E000F381E02D199480E090E008958EE693E04D
:1041F00090939C1980939B198091CF179091D01721
:104200008B59994171F4E091AE19F091AF199081F9
:104210008091B0198095892380831092D0171092D5
:10422000CF170895789484B5826084BD84B5816089
:1042300084BD85B5826085BD85B5816085BD809171
:104240006E00816080936E001092810080918100E9
:1042500082608093810080918100816080938100E1
:10426000809180008160809380008091B1008460A3
:104270008093B1008091B00081608093B000809104
:104280009100826080939100809191008160809381
:104290009100809190008160809390008091A100B6
:1042A00082608093A1008091A10081608093A10031
:1042B0008091A00081608093A000809121018260A4
:1042C000809321018091210181608093210180915F
:1042D000200181608093200180917A008460809326
:1042E0007A0080917A00826080937A0080917A00CF
:1042F000816080937A0080917A00806880937A0050
:104300001092C10082E4B0DABC01990F880B990BBE
:10431000611571058105910511F00E94472AE09110
:10432000F018F091F11882E08083E091EC18F091A0
:10433000ED181082E091EE18F091EF188FEC808369
:104340001092F818E091F418F091F51886E0808347
:10435000E091F218F091F318808180618083E09100
:10436000F218F091F318808188608083E091F21850
:10437000F091F318808180688083E091F218F091C9
:10438000F31880818F7D80831EDE80E090E073DEF5
:10439000883024E5920709F451C0803264E596071D
:1043A00009F44FC08938994809F44EC087E690E077
:1043B00062DE8734974409F44AC08FEB90E00E9494
:1043C0008D18613824E9720709F444C0613185E130
:1043D000780709F442C06032E5E17E0709F440C085
:1043E0006138F5E17F0709F43EC06115744109F4B5
:1043F0003DC08FEE90E00E948D1867327349C9F17D
:1044000084E090E032DD6115F0E87F07A9F16235C4
:104410007548A9F183ED90E028DDC62FD72F735999
:10442000723078F1C33DD10561F1C33D83EDD8070A
:1044300041F180E090E01FDEEC0123C0C8E0D4E54C
:1044400020C0C0E2D4E51DC0C9E8D2E11AC0C7E46B
:10445000D3E817C0C1E8D4E914C0C1E1D5E111C067
:10446000C0E2D5E10EC0C1E8D5E10BC0C4E1D8E699
:1044700008C0C7E2D3E905C0C7E5D3E802C0C9E870
:10448000D7E7A1DD1092ED191092EC19209711F4E5
:10449000C1E4D3E9D093D719C093D619C032E3E968
:1044A000DE0709F425C108F06CC0C93028E6D20740
:1044B00009F429C180F5C13885E1D80709F484C120
:1044C000C8F4C131F5E1DF0709F4ADC0C03225E120
:1044D000D20709F4B3C0C435D14009F0B3C182E0BA
:1044E00090E19093EF198093EE1964E870E081E910
:1044F0009AE0B9C0C83084E5D80709F4F6C0C032E4
:10450000E4E5DE0709F410C1C734D74409F09AC1C5
:1045100081E096E1BAC0C33927E7D20709F480C128
:1045200078F4C33887E7D80709F493C0C938E7E7B8
:10453000DE0709F49BC0C537D54709F083C1A3C086
:10454000C73423E8D20709F4ACC078F4C033D248AA
:1045500009F078C182E099E19093EF198093EE1908
:1045600064E071E082E698E07EC0C735E3E8DE07EC
:1045700009F4A2C0C230D34909F064C183E094E0D9
:10458000F7C0C83323E9D20709F4F0C018F5C832E0
:1045900083E9D80709F4BAC060F4C632F3E9DF074B
:1045A00009F4C2C008F0CDC0C532D34909F4AEC089
:1045B00049C1C13383E9D80709F4ABC0C533E3E986
:1045C000DE0709F4A6C0C932D34909F03BC183E034
:1045D00096E1CEC0C83824E9D20709F40BC178F4BB
:1045E000C13884E9D80709F4EFC0C638E4E9DE072A
:1045F00009F4F5C0C134D34909F024C1C2C0C530A3
:1046000025EBD20709F401C120F4C539D549D9F108
:1046100019C1C930E5EBDE0709F402C1C530D54C3C
:1046200009F4F3C00FC183E090E09093EF198093F9
:10463000EE1962E170E08FE79AE048C083E194E010
:104640009093EF198093EE1965E170E08AE69AE0A5
:1046500017C082E091E19093EF198093EE1964E026
:1046600071E086E699E00E941817ECC083E194E0BF
:104670009093EF198093EE196DE570E085E098E076
:104680000E944218DFC081E094E19093EF1980937B
:10469000EE1981E08093CC1760E870E085E897E040
:1046A000EFCF81E094E19093EF198093EE196EE8DB
:1046B00070E087EF96E0E4CF83E194E09093EF1908
:1046C0008093EE196FE070E088EE96E00E94421849
:1046D00080EE91E09093C1198093C01980E491E03D
:1046E0009093BF198093BE19ADC084E091E102C0E0
:1046F00084E090E19093EF198093EE1968EE70E0FA
:1047000080E096E0B0CF82E091E105C080E091E1E9
:1047100002C080E090E19093EF198093EE196CED68
:1047200070E084E295E09FCF84E090E19093EF19F0
:104730008093EE196CEC70E088E594E00E94181705
:104740000CC083E094E09093EF198093EE1960E43D
:1047500070E088E194E00E94421880E991E0909333
:10476000C1198093C01980EF90E0BACF83E194E043
:104770009093EF198093EE196FE070E089E094E078
:104780007FCF83E194E09093EF198093EE1983ED4E
:1047900090E06BDB672B682B692B89F461E370E099
:1047A00088ED93E00E9442188091EE199091EF19E4
:1047B000846090619093EF198093EE1943C064E791
:1047C00070E084E693E05CCF87E094E09093EF198B
:1047D0008093EE1968E570E08CE093E077CF83E09A
:1047E00094E09093EF198093EE196DE470E08FEBF5
:1047F00092E06CCF83E194E09093EF198093EE19EF
:1048000067E370E088E892E061CF88E090E1909300
:10481000EF198093EE1960EC70E088EC91E023CF03
:1048200080E090E19093EF198093EE1960EC70E0D6
:1048300088E091E00E94181780E991E09093C119F7
:104840008093C0192091EF19822F82958F7090E08C
:10485000817099279093D9198093D81960E08AEBD9
:1048600099E10E94591460E08AEB99E10E940712D5
:1048700062E08DE20E94F81B1092B6191092B519F1
:104880001092B4191092B3191092B2191092B11972
:104890008DE991E09093B8198093B7198091A71989
:1048A00096EF980F943048F02EEC280F243028F023
:1048B00022EC280F283008F072C02DEB30E0309346
:1048C000B2192093B1192BE931E03093B419209338
:1048D000B3192CE231E03093B6192093B519943016
:1048E00060F02EEC280F243040F022EC280F283006
:1048F00008F00AC4A8E6B0E009C4A8E6B0E0E8E61B
:10490000F0E02081943048F09EEC980F943028F02D
:104910008E53883010F484E001C081E0822B8C93A8
:104920008091A71996EF980F943058F02EEC280F2D
:10493000243038F022EC280F283030F020E030E02E
:1049400005C02BE630E002C02DE630E03093AF1911
:104950002093AE19943010F49AEF0BC0823381F09B
:10496000833381F0843381F092EC980F983070F4A7
:1049700092EC980F81E001C0880F9A95EAF707C082
:1049800088E005C084E003C082E001C081E080933C
:10499000B0198091B7199091B8190197F1F78091EA
:1049A000B5199091B619892B49F1E091CF17F09183
:1049B000D01729E1EB39F20709F1309739F0A389D3
:1049C000B4899C918589809589238C938091B919AC
:1049D0008E7F8093B9191092CE171092CD178BE964
:1049E00099E19093D0178093CF17E091AE19F09191
:1049F000AF1990818091B019892B80838BE999E15F
:104A000090937E1980937D192EE720937F199FEF55
:104A100090938019C6E0C09381198FEE8093881916
:104A20002093891990938A19C0938B1980939219B6
:104A300061E070E080E090E00E94531CC093821916
:104A4000109283191092841981E08093851979D985
:104A500091D983E0809381186FEF7FEF8AEB99E122
:104A60000E940C0C9FE1E92EF12C0AED11E02AE3E3
:104A700031E043E050E063E070E08AEB99E10E94AE
:104A8000DB12C0918118D0E06E0163E0C60ED11C2C
:104A900007ED11E00C1B1D0B27E331E02C1B3D0B38
:104AA000EE24EA94FE2CA601B6018AEB99E10E945D
:104AB000DB120CED11E00C1B1D0BE12CF12C2CE397
:104AC00030E0A6016CE370E08AEB99E10E94570B9D
:104AD0006091811870E029E331E0261B370B6D5F90
:104AE0007F4F00E911E040E951E08AEB99E10E9433
:104AF000570BC8E2D0E05DE3C52EDD24D39480914E
:104B000081189601281B3109E12CF12C8E01AE0190
:104B10006CE370E08AEB99E10E94570BA896C83BC2
:104B200081E0D80761F7C4E4D0E06091811870E0BB
:104B30006D5F7F4FE12CF12C8E012CE330E0AE0154
:104B40008AEB99E10E94570BCE5BDF4FCA30E1E060
:104B5000DE0759F70E94B90F0E945C100E94861070
:104B6000E1EDF7E181E081938F5F8A3AE1F7A6E01A
:104B7000CA2EA2E0DA2E0FE010E0C0E0D0E0A12CB7
:104B8000B8EFBB2E86E4882E912C209749F4B09282
:104B9000CD19A092CC19B092CB19A092CA1908C015
:104BA0001092CD191092CC191092CB191092CA19EB
:104BB0009092C7198092C6191093C9190093C81909
:104BC000F601819191916F010E945F1D2196085D10
:104BD0001F4FCA30D105C9F644244A9493E0592E98
:104BE000612C712CC1E028EAD22E32E0232E4AE05B
:104BF000C42E50EA352E6EE0862E7DE0A72EE4EF1F
:104C0000BE2EF4E69F2E80E40E94341C2EE130E09C
:104C1000DC01CAD4A301920143D4209383182F311D
:104C200058F4F6E0F09382191092831910928419C7
:104C30002093851986D89ED8D091821880918318A8
:104C4000D817A1F12D2F30E0D817B8F06AEF620322
:104C5000A001639F500D112442575E4FEE24EA9449
:104C6000FE2C04E010E02EE130E06AE070E08AEB18
:104C700099E10E94DB12D15017C02F5F3F4F6AEFBE
:104C80006203A001639F500D112442575E4FE12C37
:104C9000F12C04E010E02EE130E06AE070E08AEBF5
:104CA00099E10E94DB12DF5FD093821889E20E94B3
:104CB000D01B892B19F0C093941802C0109294183D
:104CC000809195188823B9F08BE20E94D01B019740
:104CD00091F480917E1881110AC080917B18883AE6
:104CE00019F410927B1803C08F5F80937B180E9489
:104CF00093110E94850F80919418811159C1809160
:104D00008A18882359F081E30E94D01B892B09F06F
:104D100065C180918918811161C14DC18091881848
:104D2000811113C081E30E94D01B892B09F4DAC1E1
:104D30008FE20E94D01B892B09F4D4C18DE20E941E
:104D4000D01B892B09F4CEC128C00E948B1C009176
:104D50008418109185182091861830918718DC01ED
:104D6000CB01801B910BA20BB30B84369105A105DF
:104D7000B10588F481E30E94D01B892B71F08FE28A
:104D80000E94D01B892B49F08DE20E94D01B892BF9
:104D900009F0B5C102C0C0938A180E948B1C009113
:104DA0009018109191182091921830919318AB019E
:104DB000BC01401B510B620B730B8091010290E010
:104DC000A0E0B0E084179507A607B70708F05EC01B
:104DD0000E948B1C60939018709391188093921886
:104DE000909393188FE30E94341C8C3B92402CF1DB
:104DF00080918F18811116C020918018283A59F09F
:104E0000822F6C2DAAD3993011F4295001C02F5F45
:104E10002093801802C03092801860E081E00E94E8
:104E20000F1134C080917F18823011F08F5F28C03D
:104E300010927F180E94D50E29C08FE30E94341C67
:104E40008D3291401CF580918F18811114C02091F2
:104E50008018203A59F0822F6C2D7FD3911102C017
:104E6000275F01C021502093801802C0D092801883
:104E700060E080E0D4CF80917F18882321F08150BA
:104E800080937F18D7CF20927F18D4CF0E948B1C9D
:104E900000918B1810918C1820918D1830918E18DC
:104EA000AB01BC01401B510B620B730B80910002E4
:104EB00090E0A0E0B0E084179507A607B70708F0D8
:104EC00077C00E948B1C60938B1870938C18809312
:104ED0008D1890938E188EE30E94341C8C3B924068
:104EE000E4F080918F18811111C08091801890E6B4
:104EF000980F9A3018F49093801803C0865F8093BF
:104F0000801861E081E00E940F1152C080917F18EB
:104F1000882391F08130F1F029C08EE30E94341C87
:104F20008D3291400CF044C080918F18882349F154
:104F300080917F1881110CC080917E18882319F010
:104F400010927E1802C0C0937E180E945C1030C080
:104F5000813021F580917D18882319F010927D18F9
:104F600002C0C0937D180E94861022C080917C18D8
:104F7000853011F08F5F17C010927C180E94B90F16
:104F800017C0809180188A3038F4893019F4D09293
:104F90008018B7CF8056B3CF8A50B1CF80917C189C
:104FA000882321F0815080937C18E8CF85E0FBCFE7
:104FB0000E941B1A28CEC093891880918018809374
:104FC0007B180E94931110927A180E94850F80918D
:104FD00095188111E2CEC0939518DFCE8FE20E9422
:104FE000D01B892B79F58091891881112BC0C09332
:104FF000891880918F188823D1F010928F18909281
:10500000000288EC809301026FEF7FEF87E390E06E
:105010000E94631D6FEF7FEF8DE790E00E94631D9C
:105020006FEF7FEF8EEB90E00E94631DB6CEC093D2
:105030008F1810927F18B0920002B09201020E9465
:10504000D50EABCE8DE20E94D01B892BB1F580919D
:105050008918811132C0C093891880917A188823E9
:10506000A9F0A09282191092831910928419C0930A
:1050700085190E94A11E0E94BA1E10927A1883ED13
:1050800093E00E94241FC093951814C08092821947
:105090001092831910928419C09385190E94A11E41
:1050A0000E94BA1EC0937A188AED93E00E94241FD2
:1050B000109295180E94FD0E70CE81E30E94D01BC5
:1050C000892B09F46ACE8FE20E94D01B892B09F448
:1050D00064CE8DE20E94D01B892B09F45ECE109223
:1050E00089180DC0C09388180E948B1C6093841887
:1050F0007093851880938618909387184ECE1092DF
:105100008A181092881849CEA0E0B0E0283008F440
:10511000F6CBE0E0F0E0F5CB1F93CF93DF93282FA1
:1051200030E0F901E15DF44F8491F901E151F44F70
:10513000D491F901E755F44FC491CC23C1F0162F57
:1051400081110E94531AEC2FF0E0EE0FFF1FE15780
:10515000F44FA591B4919FB7F894111104C08C91AC
:10516000D095D82302C0EC91DE2BDC939FBFDF915A
:10517000CF911F9108951092E3181092E21888EED3
:1051800093E0A0E0B0E08093E4189093E518A0933A
:10519000E618B093E7182CE533E03093E11820933C
:1051A000E01825EC30E03093ED182093EC1824EC57
:1051B00030E03093EF182093EE1820EC30E030937D
:1051C000F1182093F01821EC30E03093F31820937D
:1051D000F21822EC30E03093F5182093F41826EC06
:1051E00030E03093F7182093F6181092F9181092C7
:1051F000FA181092FB181092FC181092BD19109218
:10520000BC1940EF50E05093BF194093BE1920E401
:1052100031E03093C1192093C0195093C3194093C2
:10522000C2193093C5192093C4191092CF19109246
:10523000C7191092C6191092C9191092C81961E0C5
:105240006093CE192FEF3FEF3093CD192093CC19F7
:105250003093CB192093CA196093D01925E020937D
:10526000D11928E02093D21925E33CE03093D519D9
:105270002093D4191092D31920E833E03093BB194E
:105280002093BA1910929E1910929D1980939F191C
:105290009093A019A093A119B093A2198EE693E060
:1052A00090939C1980939B191092B2191092B11986
:1052B0001092B4191092B3191092B6191092B51930
:1052C0001092B8191092B7198091B9198E7F8D7FFD
:1052D0008093B91986958170682785E31DDF61E0A9
:1052E00085E30E94F81BE4E2FCE0E491E093AB1953
:1052F000EEEDFBE0E491F0E0EE0FFF1FE157F44F1D
:10530000859194919093AD198093AC1960E083E3FB
:105310000E94F81B8091B91981FD03C061E083E30D
:10532000FBDE83E38093A719E2E2FCE0E491E093E3
:10533000A819ECEDFBE0E491F0E0EE0FFF1FEB5855
:10534000F44F859194919093AA198093A91984EFB1
:1053500091E0A0E0B0E08093971990939819A09302
:105360009919B0939A1908958F929F92AF92BF9214
:10537000CF92DF92EF92FF92CF93DF93EC0168819F
:1053800079818A819B81611571058105910521F4DF
:1053900064E279ED8BE597E02DE133EF41E050E0F9
:1053A0007FD049015A019B01AC01A7EAB1E494D036
:1053B0006B017C01ACEEB4EFA501940199D0DC0146
:1053C000CB018C0D9D1DAE1DBF1DB7FF03C0019706
:1053D000A109B04888839983AA83BB83BC01CD010E
:1053E0009F77DF91CF91FF90EF90DF90CF90BF90AC
:1053F000AF909F908F9008958F929F92AF92BF929F
:10540000CF92DF92EF92FF926091020270910302BD
:105410008091040290910502611571058105910545
:1054200021F464E279ED8BE597E02DE133EF41E083
:1054300050E036D049015A019B01AC01A7EAB1E422
:105440004BD06B017C01ACEEB4EFA501940150D0C0
:10545000DC01CB018C0D9D1DAE1DBF1DB7FF03C030
:105460000197A109B0488093020290930302A09390
:105470000402B0930502BC01CD019F77FF90EF902D
:10548000DF90CF90BF90AF909F908F9008956093E2
:105490000202709303028093040290930502089520
:1054A000052E97FB16F400940FD057FD05D024D09D
:1054B00007FC02D046F408C05095409530952195E0
:1054C0003F4F4F4F5F4F0895909580957095619530
:1054D0007F4F8F4F9F4F089531D0A59F900DB49F60
:1054E000900DA49F800D911D11240895B7FFF4CF56
:1054F000F3DF821B930B0895A1E21A2EAA1BBB1B9C
:10550000FD010DC0AA1FBB1FEE1FFF1FA217B3078F
:10551000E407F50720F0A21BB30BE40BF50B661FA5
:10552000771F881F991F1A9469F760957095809569
:1055300090959B01AC01BD01CF010895A29FB001E0
:10554000B39FC001A39F700D811D1124911DB29FB7
:10555000700D811D1124911D0895991B79E004C0DF
:10556000991F961708F0961B881F7A95C9F78095A2
:10557000089597FB072E16F4009406D077FD08D007
:1055800019D007FC05D03EF4909581959F4F089562
:10559000709561957F4F0895EE0FFF1F881F8BBF99
:1055A0000790F691E02D1994C9DFB7FF0895821B8B
:1055B000930B0895AA1BBB1B51E107C0AA1FBB1F79
:1055C000A617B70710F0A61BB70B881F991F5A958F
:1055D000A9F780959095BC01CD01089581E090E0F8
:1055E000F89400C018E0C9E9D8E000E005C0802FB9
:1055F000FE01D2DF2196011DCA39D10780E00807DC
:06560000B1F7F894FFCFA2
:1056060064C801000000E003F703080421043E0417
:105616004F049F04B804DA04E604FB04200546059B
:105626005F057D059905B105CD05E805070619064F
:1056360073069806B706E106070725079B07BA070C
:10564600DD071F0848088E08AE08C608DD08FE08F4
:10565600200939094D099909B509D609F109000A40
:10566600140A2D0A7C0A9D0AB00AC90AE80A380BF0
:105676005B0B7E0B900BA20BBE0BDA0BF40B120C22
:10568600250C3F0C890C9D0CB60CCA0CE30CFD0CCA
:105696000D0D290D4C0D6B0D870D9B0DAF0DCC0D12
:1056A600E40D090E1B0E340E4E0E680E870EA00E6C
:1056B600B70ED60EEF0E060F1D0F3E0F5D0F7C0FB9
:1056C6009B0FBD0FC80FD90FF70F121023106F10C5
:1056D6008910A510BB10D310ED1013112811371126
:1056E6004D116011721185119A11B911D911F0116C
:1056F60004121D1230124E126A128C12A012BC1223
:10570600CD12F01204131F1338135A136F13841398
:105716009D13B513CE13EB1340145A1471148D1444
:105726009A14AD14F414FF14101529153C154815D8
:10573600631574159015B115CB15DF1503162216D2
:1057460047166A168916A216CA16E316FE164717D4
:1057560061178917AC17BB1700000000AE1911209E
:105766004619FA1977195519691900000000E71A40
:105776001120090CE61A371B4E1BCE1A000000003A
:10578600F5081120090C080C6F12570BE008CD081C
:10579600080BDB120C0C071259146E6F726D616CDC
:1057A60000706F7000726F636B006A617A7A0063D3
:1057B6006C6173736963006261736500726570651D
:1057C60061740073687566666C6500706C6179005B
:1057D6000D0A00726573756D6500706175736500FD
:1057E6003130636D202D2057686174207468652000
:1057F600737072696E67003130636D202D205068BA
:105806006F6E6563657274004164616D204C6576E8
:10581600696E65202D204C6F73742053746172730A
:10582600004261672052616964657273202D2053BE
:10583600686F6F74696E6720537461727300424AB1
:105846004A202D204669727374204B697373004297
:105856006C6F6E6465202D20416C6C204372696507
:1058660064204F757420666561742E20416C6578DE
:10587600204E6577656C6C2020202020202020207B
:10588600202020202020202020284F6C6976657259
:10589600204E656C736F6E2052656D6978290044E1
:1058A6006176696420477565747461202D20506C9B
:1058B600617920486172640044494E59202D204385
:1058C6006F736D69632046616E74617374696320DA
:1058D6004C6F766520736F6E6700444A204D617881
:1058E600202D20496600444A204D6178202D205302
:1058F6007765657420447265616D00444A204D6188
:105906007820506F727461626C652032202D2059A8
:105916006F7572204F776E204D697261636C6500FA
:10592600446A206D617820506F727461626C6520E4
:1059360033202D204B65797320546F2054686520E1
:10594600576F726C6400446A206D617820506F72E4
:105956007461626C652033202D2054726970004496
:105966004A204D61782052455350454354202D20FE
:105976004F6E6C7920466F7220596F7500444A202D
:105986004D6178205472696C6F6779202D205375AC
:105996006E6E79205369646500444A4D4158202D46
:1059A600204D656D6F7279204F6620426561636890
:1059B60000446A6D617820546563686E696B612086
:1059C60033202D20596F752026204D650044722EF8
:1059D60020447265202D20546865204E6578742019
:1059E600457069736F646500456E726971756520EF
:1059F60049676C6573696173202D20446F20596F68
:105A060075204B6E6F770046616C6C204F75742065
:105A1600426F79202D2032370046616C6C204F751D
:105A26007420426F79202D2041204C6974746C6576
:105A3600204C657373205369787465656E20202049
:105A46002020202020202020202020202020202050
:105A560020202043616E646C65732C2041204C69C4
:105A660074746C65204D6F726520546F7563682081
:105A76004D650046616C6C204F757420426F79202D
:105A86002D2043616C6D204265666F7265207468D7
:105A9600652053746F726D0046616C6C204F75748F
:105AA60020426F79202D2044656164204F6E20418D
:105AB60072726976616C0046616C6C204F75742059
:105AC600426F79202D2046726F6D204E6F77204FE2
:105AD6006E2057652041726520456E656D69657358
